:020000040000FA
:0400080010EF10F0F5
:0800180000EF20F0FFFFFFFFE5
:10002000FFFFFFFFFFFFFFFFFFFFFFFFFFFFFFFFE0
:10003000FFFFFFFFFFFFFFFFFFFFFFFFFFFFFFFFD0
:10004000FFFFFFFFFFFFFFFFFFFFFFFFFFFFFFFFC0
:10005000FFFFFFFFFFFFFFFFFFFFFFFFFFFFFFFFB0
:10006000FFFFFFFFFFFFFFFFFFFFFFFFFFFFFFFFA0
:0A007000FFFFFFFFFFFFFFFFFFFF90
:1020000000D02400342500C625006C2600082700D7
:10201000A42700E027001A2000000CEF1FF0120098
:10202000E8CFE5FFD8CFE5FFE0CFE5FFF3CFE5FF51
:10203000F4CFE5FFE9CFE5FFEACFE5FFFACFE5FF13
:10204000FBCFE5FF43EC1EF0E4CFFBFFE4CFFAFF4C
:10205000E4CFEAFFE4CFE9FFE4CFF4FFE4CFF3FFFE
:10206000E4CFE0FFE4CFD8FFE4CFE8FF100000C0EA
:10207000E5FF01C0E5FF02C0E5FF03C0E5FF04C0C6
:10208000E5FF05C0E5FF06C0E5FF07C0E5FF08C0A6
:10209000E5FF09C0E5FF02016B6B6C6B6D6B006ABD
:1020A000120E005C2EE2360E0024016E026A020E51
:1020B000022201C0E9FF02C0EAFFEF68000E00241F
:1020C000016E026A020E022201C0E9FF02C0EAFFAD
:1020D000EF6A120E0024016E026A020E022201C093
:1020E000E9FF02C0EAFFEF6A240E0024016E026AD3
:1020F000020E022201C0E9FF02C0EAFFEF6A002AD5
:10210000CFD7006A016A120E005CD8B0CAD1010EA6
:10211000026E036A120E035CD8B08ED1080E035C07
:10212000D8B082D0280E0324046E056A280E05223A
:10213000066A000E062204C0F6FF05C0F7FF06C0BF
:10214000F8FF0900F5CF04F002016B510414056E8D
:1021500002015E5105160550D8A46CD1480E032427
:10216000056E066A020E062205C0E9FF06C0EAFFF8
:10217000EFCF05F0360E0124066E076A020E072225
:1021800006C0E9FF07C0EAFFEFCF08F00850055C82
:102190002BE206C0E9FF07C0EAFF05C0EFFF000E13
:1021A0000124086E096A020E092208C0E9FF09C06D
:1021B000EAFF04C0EFFF120E0124086E096A020E46
:1021C000092208C0E9FF09C0EAFFEF6A240E0124D2
:1021D000086E096A020E092208C0E9FF09C0EAFF79
:1021E000EF6A010E026E26D106C0E9FF07C0EAFFC2
:1021F000EFCF06F00550061801E01CD1000E0124B7
:10220000056E066A020E062205C0E9FF06C0EAFF57
:10221000EFCF07F00750041205C0E9FF06C0EAFF40
:1022200004C0EFFF022A06D10D0E035CD8A082D0B5
:10223000280E0324046E056A280E0522066A000E85
:10224000062204C0F6FF05C0F7FF06C0F8FF09002C
:10225000F5CF04F002016D510414056E02016051C6
:1022600005160550D8A4E6D0480E0324056E066A6C
:10227000020E062205C0E9FF06C0EAFFEFCF05F017
:10228000360E0124066E076A020E072206C0E9FF19
:1022900007C0EAFFEFCF08F00850055C2BE206C04C
:1022A000E9FF07C0EAFF05C0EFFF000E0124086E3A
:1022B000096A020E092208C0E9FF09C0EAFFEF6AB5
:1022C000120E0124086E096A020E092208C0E9FFF5
:1022D00009C0EAFFEF6A240E0124086E096A020EA3
:1022E000092208C0E9FF09C0EAFF04C0EFFF010EA0
:1022F000026EA0D006C0E9FF07C0EAFFEFCF06F0EC
:102300000550061801E096D0240E0124056E066AD9
:10231000020E062205C0E9FF06C0EAFFEFCF07F074
:102320000750041205C0E9FF06C0EAFF04C0EFFF32
:10233000022A80D0280E0324046E056A280E052286
:10234000066A000E062204C0F6FF05C0F7FF06C0AD
:10235000F8FF0900F5CF04F002016C510414056E7A
:1023600002015F5105160550D8A464D0480E03241D
:10237000056E066A020E062205C0E9FF06C0EAFFE6
:10238000EFCF05F0360E0124066E076A020E072213
:1023900006C0E9FF07C0EAFFEFCF08F00850055C70
:1023A0002BE206C0E9FF07C0EAFF05C0EFFF000E01
:1023B0000124086E096A020E092208C0E9FF09C05B
:1023C000EAFFEF6A120E0124086E096A020E092262
:1023D00008C0E9FF09C0EAFF04C0EFFF240E012492
:1023E000086E096A020E092208C0E9FF09C0EAFF67
:1023F000EF6A010E026E1ED006C0E9FF07C0EAFFB9
:10240000EFCF06F00550061815E1120E0124056EF7
:10241000066A020E062205C0E9FF06C0EAFFEFCFFA
:1024200007F00750041205C0E9FF06C0EAFF04C028
:10243000EFFF022A032A6ED6000E0124036E046AFF
:10244000020E042203C0E9FF04C0EAFFEFCF03F04D
:1024500002016B51031203506B6F120E0124036EC5
:10246000046A020E042203C0E9FF04C0EAFFEFCFB2
:1024700003F06C51031203506C6F240E0124036EA1
:10248000046A020E042203C0E9FF04C0EAFFEFCF92
:1024900003F06D51031203506D6F02500026012AA4
:1024A00032D602015C6BE4CF09F0E4CF08F0E4CF50
:1024B00007F0E4CF06F0E4CF05F0E4CF04F0E4CF7A
:1024C00003F0E4CF02F0E4CF01F0E4CF00F012001B
:1024D00012010002FF00FF08D804AAFE0001010259
:1024E000030309021200010104C0000904000000F6
:1024F000FFFFFF0409022000010205C000090400DB
:102500000002FFFFFF0507050102400000070582EA
:102510000240000009022000010304C00009040079
:102520000002FFFFFF0607050102400000070582C9
:1025300002400000E22400F42400142500000403FB
:10254000090426034A00650061006E002D0050005A
:102550006900650072007200650020004D004100B6
:102560004E0044004F004E002203500069006E00F0
:102570006700750069006E006F0020005000720057
:102580006F006A00650063007400040331001003EB
:10259000440065006600610075006C0074000C0367
:1025A00046006C006100730068001C035000690065
:1025B0006E006700750069006E006F00200061000A
:1025C000700070006C003E25004225006825008ADE
:1025D00025008E25009E2500AA2500002E00001E45
:1025E00020001E20001E20001E20001E20001E2095
:1025F000001E20001E20001E20001E20001E2000A5
:102600001E20001E20001E20001E20002E00003A6A
:1026100000004200001E20001E20001E20001E2080
:10262000001E20001E20001E20001E20001E200074
:102630001E20001E20001E20001E20002E00006E06
:102640003E00703E001E20001E20001E20001E20A6
:10265000001E20001E20001E20001E20001E200044
:102660001E20001E20001E20001E2000DC2500DC95
:1026700025000C26003C26003200001E20001E20F3
:10268000001E20001E20001E20001E20001E200014
:102690001E20001E20001E20001E20001E20001EE6
:1026A00020001E20001E20003200001E20004600D8
:1026B000001E20001E20001E20001E20001E2000E4
:1026C0001E20001E20001E20001E20001E20001EB6
:1026D00020001E20001E20003200001E2000743E3C
:1026E000001E20001E20001E20001E20001E2000B4
:1026F0001E20001E20001E20001E20001E20001E86
:1027000020001E20001E2000782600782600A82623
:1027100000D826002E00001E20001E20001E2000D3
:102720001E20001E20001E20001E20001E20001E55
:1027300020001E20001E20001E20001E20001E2043
:10274000001E20002E00003E00001E20001E200063
:102750001E20001E20001E20001E20001E20001E25
:1027600020001E20001E20001E20001E20001E2013
:10277000001E20002E0000723E001E20001E2000C1
:102780001E20001E20001E20001E20001E20001EF5
:1027900020001E20001E20001E20001E20001E20E3
:1027A000001E20001427001427004427007427006F
:1027B0003600001E20001E20001E20001E20001ECD
:1027C00020001E20001E20001E20001E20001E20B3
:1027D000001E20001E20001E20001E20001E2000C3
:1027E000B02700B02700B02700B02700010204087E
:1027F00010204080408001020401020408200102F0
:1028000004010204081020408000000000000000C5
:10281000000001010101010202020202040404039A
:102820000303030303030300010204081020408094
:102830004080010204010204082000C0E5FF01C03D
:10284000E5FF02C0E5FF03C0E5FF02016151E56E4F
:1028500024EC1DF002016E6FF3CF6FF2E12A6EC21D
:1028600000F06FC201F0E86A6FBFFF0E026E036EE8
:10287000E56AE56AE56AB30EE56EE56AE56AE56A6A
:10288000E56AE56AE56A030EE56EAC0EE56EE56A9B
:10289000E56A010EE56E360EE56E0350E56E0250F8
:1028A000E56E0150E56E0050E56E73EC18F0006EB9
:1028B000F3CF01F0140EE126005002016E6F0150BB
:1028C0006F6F6E51E56E070EE56E9DEC1DF0020E0A
:1028D000E126E56AE56AE56A0A0EE56E8AEC1CF017
:1028E000040EE12602016351E56E24EC1DF00201A5
:1028F000706FF3CF71F2E12A70C200F071C201F083
:10290000E86A71BFFF0E026E036EE56AE56AE56A6A
:10291000B30EE56EE56AE56AE56AE56AE56AE56AC9
:10292000030EE56EE568E56AE56A020EE56E440EA3
:10293000E56E0350E56E0250E56E0150E56E005005
:10294000E56E73EC18F0006EF3CF01F0140EE12683
:1029500000500201706F0150716F7051E56E060EEC
:10296000E56E9DEC1DF0020EE126E56AE56AE56A7A
:102970000A0EE56E8AEC1CF0040EE1260201655198
:10298000E56E24EC1DF00201726FF3CF73F2E12AC1
:1029900072C200F073C201F0E86A73BFFF0E026EEC
:1029A000036EE56AE56AE56AB30EE56EE56AE56A17
:1029B000E56AE56AE56AE56A030EE56ED40EE56E42
:1029C000E56AE56A010EE56ED60EE56E0350E56E2A
:1029D0000250E56E0150E56E0050E56E73EC18F0A4
:1029E000006EF3CF01F0140EE12600500201726F69
:1029F0000150736F7251E56E050EE56E9DEC1DF092
:102A0000020EE126E56AE56AE56A0A0EE56E8AECE1
:102A10001CF0040EE12602016751E56E24EC1DF066
:102A20000201746FF3CF75F2E12A74C200F075C22F
:102A300001F0E86A75BFFF0E026E036EE56AE56A93
:102A4000E56AB30EE56EE56AE56AE56AE56AE56A98
:102A5000E56A030EE56EE80EE56EE56AE56A010ECD
:102A6000E56E360EE56E0350E56E0250E56E0150E0
:102A7000E56E0050E56E73EC18F0006EF3CF01F0D8
:102A8000140EE12600500201746F0150756F7451ED
:102A9000E56E040EE56E9DEC1DF0020EE126E56A82
:102AA000E56AE56A0A0EE56E8AEC1CF0040EE12682
:102AB00002016951E56E24EC1DF00201766FF3CF3F
:102AC00077F2E12A76C200F077C201F0E86A77BFB8
:102AD000FF0E026E036EE56AE56AE56AB30EE56E07
:102AE000E56AE56AE56AE56AE56AE56A030EE56EA8
:102AF000E568E56AE56A010EE56E900EE56E035045
:102B0000E56E0250E56E0150E56E0050E56E73EC27
:102B100018F0006EF3CF01F0140EE1260050020110
:102B2000766F0150776F7651E56E030EE56E9DEC82
:102B30001DF0020EE126E56AE56AE56A0A0EE56E19
:102B40008AEC1CF0040EE126E4CF03F0E4CF02F09F
:102B5000E4CF01F0E4CF00F01200D9CFE5FFE1CFE0
:102B6000D9FF00C0E5FF01C0E5FF02C0E5FF03C0DB
:102B7000E5FF04C0E5FF05C0E5FF06C0E5FF020E66
:102B8000DBCF00F0030EDBCF01F0040EDBCF02F051
:102B9000050EDBCF03F00A0E0024046E280E012080
:102BA000056E066A01BE0668000E062204C0F6FF26
:102BB00005C0F7FF06C0F8FF0900F5CF04F0050EC9
:102BC000045CD8B01CD107C0E5FF08C0E5FF086A67
:102BD00004340836E8340836FC0B076E000EFB6E32
:102BE0002B0EFA6EFC0E07260850FA22D8B0FB2AEC
:102BF0000750E4CF08F0E4CF07F0F96E08EF16F0C5
:102C00003AEF16F06CEF16F09EEF16F0D0EF16F0DC
:102C10000250031017E0EC0E0024046E270E012072
:102C2000056E066A01BE0668000E062204C0F6FFA5
:102C300005C0F7FF06C0F8FF0900F5CF04F0045007
:102C40009312DDD0EC0E0024046E270E0120056ED9
:102C5000066A01BE0668000E062204C0F6FF05C023
:102C6000F7FF06C0F8FF0900F5CF04F00450FF0895
:102C70009316C5D00250031017E0EC0E0024046E2A
:102C8000270E0120056E066A01BE0668000E0622A8
:102C900004C0F6FF05C0F7FF06C0F8FF0900F5CF36
:102CA00004F004509412ABD0EC0E0024046E270EF6
:102CB0000120056E066A01BE0668000E062204C0E9
:102CC000F6FF05C0F7FF06C0F8FF0900F5CF04F0D6
:102CD0000450FF08941693D00250031017E0EC0E36
:102CE0000024046E270E0120056E066A01BE0668E8
:102CF000000E062204C0F6FF05C0F7FF06C0F8FF6D
:102D00000900F5CF04F00450921279D0EC0E0024A3
:102D1000046E270E0120056E066A01BE0668000ECD
:102D2000062204C0F6FF05C0F7FF06C0F8FF090041
:102D3000F5CF04F00450FF08921661D00250031042
:102D400017E0EC0E0024046E270E0120056E066AC3
:102D500001BE0668000E062204C0F6FF05C0F7FF9C
:102D600006C0F8FF0900F5CF04F00450951247D0D3
:102D7000EC0E0024046E270E0120056E066A01BECB
:102D80000668000E062204C0F6FF05C0F7FF06C065
:102D9000F8FF0900F5CF04F00450FF0895162FD076
:102DA0000250031017E0EC0E0024026E270E0120E3
:102DB000036E046A01BE0468000E042202C0F6FF1E
:102DC00003C0F7FF04C0F8FF0900F5CF02F002507E
:102DD000961215D0026A01BE0268EC0E0026270E7C
:102DE0000122000E022200C0F6FF01C0F7FF02C060
:102DF000F8FF0900F5CF00F00050FF089616E4CF69
:102E000006F0E4CF05F0E4CF04F0E4CF03F0E4CF24
:102E100002F0E4CF01F0E4CF00F0E4CFD9FF1200DC
:102E2000D9CFE5FFE1CFD9FF00C0E5FF01C0E5FF45
:102E300002C0E5FF03C0E5FF04C0E5FF05C0E5FFF4
:102E400006C0E5FF020EDBCF00F0030EDBCF01F082
:102E5000040EDBCF02F0050EDBCF03F00A0E0024D8
:102E6000046E280E0120056E066A01BE0668000E7B
:102E7000062204C0F6FF05C0F7FF06C0F8FF0900F0
:102E8000F5CF04F0050E045CD8B01CD107C0E5FFF7
:102E900008C0E5FF086A04340836E8340836FC0B3D
:102EA000076E000EFB6E2E0EFA6EC20E072608503D
:102EB000FA22D8B0FB2A0750E4CF08F0E4CF07F09D
:102EC000F96E6BEF17F09DEF17F0CFEF17F001EFF2
:102ED00018F033EF18F00250031017E0EC0E002446
:102EE000046E270E0120056E066A01BE0668000EFC
:102EF000062204C0F6FF05C0F7FF06C0F8FF090070
:102F0000F5CF04F004508112DDD0EC0E0024046EE5
:102F1000270E0120056E066A01BE0668000E062215
:102F200004C0F6FF05C0F7FF06C0F8FF0900F5CFA3
:102F300004F00450FF088116C5D00250031017E0BA
:102F4000EC0E0024046E270E0120056E066A01BEF9
:102F50000668000E062204C0F6FF05C0F7FF06C093
:102F6000F8FF0900F5CF04F004508212ABD0EC0E4C
:102F70000024046E270E0120056E066A01BE066855
:102F8000000E062204C0F6FF05C0F7FF06C0F8FFDA
:102F90000900F5CF04F00450FF08821693D00250C8
:102FA000031017E0EC0E0024046E270E0120056EBE
:102FB000066A01BE0668000E062204C0F6FF05C0C0
:102FC000F7FF06C0F8FF0900F5CF04F004508012A7
:102FD00079D0EC0E0024046E270E0120056E066ADF
:102FE00001BE0668000E062204C0F6FF05C0F7FF0A
:102FF00006C0F8FF0900F5CF04F00450FF08801662
:1030000061D00250031017E0EC0E0024046E270E6E
:103010000120056E066A01BE0668000E062204C085
:10302000F6FF05C0F7FF06C0F8FF0900F5CF04F072
:103030000450831247D0EC0E0024046E270E0120AA
:10304000056E066A01BE0668000E062204C0F6FF81
:1030500005C0F7FF06C0F8FF0900F5CF04F00450E3
:10306000FF0883162FD00250031017E0EC0E002447
:10307000026E270E0120036E046A01BE0468000E72
:10308000042202C0F6FF03C0F7FF04C0F8FF0900E6
:10309000F5CF02F00250841215D0026A01BE026818
:1030A000EC0E0026270E0122000E022200C0F6FFC1
:1030B00001C0F7FF02C0F8FF0900F5CF00F0005093
:1030C000FF088416E4CF06F0E4CF05F0E4CF04F067
:1030D000E4CF03F0E4CF02F0E4CF01F0E4CF00F05E
:1030E000E4CFD9FF1200D9CFE5FFE1CFD9FF00C06F
:1030F000E5FF01C0E5FF02C0E5FF03C0E5FF04C036
:10310000E5FF05C0E5FF06C0E5FF07C0E5FF08C015
:10311000E5FF09C0E5FF0AC0E5FF0BC0E5FF0CC0F5
:10312000E5FF0DC0E5FF0EC0E5FF0FC0E5FF10C0D5
:10313000E5FF11C0E5FF12C0E5FF13C0E5FF020E79
:10314000DBCF00F0030EDBCF01F0040EDBCF02F08B
:10315000050EDBCF03F0060EDBCF04F0070EDBCF4E
:1031600005F0080EDBCF06F0090EDBCF07F00A0EE4
:10317000DBCF08F00B0EDBCF09F00C0EDBCF0AF033
:103180000D0EDBCF0BF00E0EDBCF0CF00F0EDBCFF6
:103190000DF0100EDBCF0EF0110EDBCF0FF0120E84
:1031A000DBCF10F0130EDBCF11F0140EDBCF12F0DB
:1031B000150EDBCF13F00450005E0550015A065087
:1031C000025A0750035A0C50105E0D50115A0E50FF
:1031D000125A0F50135A1350E56E1250E56E1150EB
:1031E000E56E1050E56E0350E56E0250E56E01503D
:1031F000E56E0050E56E25EC00F0006EF3CF01F0B7
:10320000F4CF02F0E9CF03F0080EE1260450085C89
:10321000046E05500958056E06500A58066E075090
:103220000B58E56E0650E56E0550E56E0450E56EF0
:103230000350E56E0250E56E0150E56E0050E56EFC
:1032400065EC19F0006EF3CF01F0F4CF02F0E9CF96
:1032500003F0080EE12600500C2601500D2202500A
:103260000E2203500F220FC0E9FF0EC0F4FF0DC065
:10327000F3FF0C50E4CF13F0E4CF12F0E4CF11F0E1
:10328000E4CF10F0E4CF0FF0E4CF0EF0E4CF0DF078
:10329000E4CF0CF0E4CF0BF0E4CF0AF0E4CF09F078
:1032A000E4CF08F0E4CF07F0E4CF06F0E4CF05F078
:1032B000E4CF04F0E4CF03F0E4CF02F0E4CF01F078
:1032C000E4CF00F0E4CFD9FF1200D9CFE5FFE1CF82
:1032D000D9FF00C0E5FF01C0E5FF02C0E5FF03C064
:1032E000E5FF04C0E5FF05C0E5FF06C0E5FF07C038
:1032F000E5FF08C0E5FF09C0E5FF0AC0E5FF0BC018
:10330000E5FF0CC0E5FF0DC0E5FF020EDBCF00F0CE
:10331000030EDBCF01F0040EDBCF02F0050EDBCF96
:1033200003F0060EDBCF04F0070EDBCF05F0080E2E
:10333000DBCF06F0090EDBCF07F0D88003AED890C4
:10334000086A083608500FE0031C0C6E021C0B6E56
:10335000011C0A6E001C096E092A0DE10A2A0BE104
:103360000B4A0C2A08D000C009F001C00AF002C0C4
:103370000BF003C00CF009C000F00AC001F00BC054
:1033800002F00CC003F0D88007AED890096A093665
:1033900009500FE0071C0D6E061C0C6E051C0B6E11
:1033A000041C0A6E0A2A0DE10B2A0BE10C4A0D2AB5
:1033B00008D004C00AF005C00BF006C00CF007C02E
:1033C0000DF00D50E56E0C50E56E0B50E56E0A5099
:1033D000E56E0350E56E0250E56E0150E56E00505B
:1033E000E56E3CEC1AF0006EF3CF01F0F4CF02F082
:1033F000E9CF03F0080EE1260950081A085016E03C
:10340000031C076E021C066E011C056E001C046E78
:10341000042A04E1052A02E1064A072A07C0E9FF57
:1034200006C0F4FF05C0F3FF045007D003C0E9FF56
:1034300002C0F4FF01C0F3FF0050E4CF0DF0E4CF71
:103440000CF0E4CF0BF0E4CF0AF0E4CF09F0E4CFC6
:1034500008F0E4CF07F0E4CF06F0E4CF05F0E4CFC6
:1034600004F0E4CF03F0E4CF02F0E4CF01F0E4CFC6
:1034700000F0E4CFD9FF1200D9CFE5FFE1CFD9FFAB
:1034800000C0E5FF01C0E5FF02C0E5FF03C0E5FFA6
:1034900004C0E5FF05C0E5FF06C0E5FF07C0E5FF86
:1034A00008C0E5FF09C0E5FF0AC0E5FF0BC0E5FF66
:1034B0000CC0E5FF0DC0E5FF020EDBCF00F0030EF0
:1034C000DBCF01F0040EDBCF02F0050EDBCF03F003
:1034D000060EDBCF04F0070EDBCF05F0080EDBCFC6
:1034E00006F0090EDBCF07F0086A096A0A6A0B6A60
:1034F000200E0C6E0344010B0D6E010E0D160050D4
:1035000000260136023603360850082609360A36E8
:103510000B360D50D8A4088007500B5C08E106500C
:103520000A5C05E10550095C02E10450085C09E30E
:103530000450085E0550095A06500A5A07500B5AA3
:1035400000800C2ED7D703C0E9FF02C0F4FF01C0F2
:10355000F3FF0050E4CF0DF0E4CF0CF0E4CF0BF01C
:10356000E4CF0AF0E4CF09F0E4CF08F0E4CF07F0AD
:10357000E4CF06F0E4CF05F0E4CF04F0E4CF03F0AD
:10358000E4CF02F0E4CF01F0E4CF00F0E4CFD9FFC4
:103590001200D9CFE5FFE1CFD9FF00C0E5FF01C0A0
:1035A000E5FF02C0E5FF03C0E5FF04C0E5FF020E32
:1035B000DBCF00F00A0E0024016E026A280E022200
:1035C000036A000E032201C0F6FF02C0F7FF03C02A
:1035D000F8FF0900F5CF01F0050E015C38E205C0E7
:1035E000E5FF06C0E5FF066A01340636E834063614
:1035F000FC0B056E000EFB6E360EFA6E140E0526E1
:103600000650FA22D8B0FB2A0550E4CF06F0E4CFEA
:1036100005F0F96E14EF1BF018EF1BF01CEF1BF018
:1036200020EF1BF024EF1BF081CF01F0026A0FD0D6
:1036300082CF01F0026A0BD080CF01F0026A07D07E
:1036400083CF01F0026A03D084CF01F0026A036ADB
:10365000046AEC0E0026270E0322000E042200C08E
:10366000F6FF03C0F7FF04C0F8FF0900F5CF00F034
:10367000036A00500116035002160150021002E0C6
:10368000010E01D0E86AE4CF04F0E4CF03F0E4CF08
:1036900002F0E4CF01F0E4CF00F0E4CFD9FF120054
:1036A000D9CFE5FFE1CFD9FF00C0E5FF01C0E5FFBD
:1036B00002C0E5FF03C0E5FF020EDBCF00F0120EF3
:1036C000005CD8B052D0080E005C1AE2280E00242C
:1036D000016E026A280E0222036A000E032201C054
:1036E000F6FF02C0F7FF03C0F8FF0900F5CF01F0B5
:1036F000015002015E115E6F0150FF08931635D034
:103700000D0E005C1AE3280E0024016E026A280EDA
:103710000222036A000E032201C0F6FF02C0F7FF77
:1037200003C0F8FF0900F5CF01F00150020160115C
:10373000606F0150FF08921618D0016A026A280EC5
:103740000026280E0122000E022200C0F6FF01C052
:10375000F7FF02C0F8FF0900F5CF00F000500201AA
:103760005F115F6F0050FF089416E4CF03F0E4CFC1
:1037700002F0E4CF01F0E4CF00F0E4CFD9FF120073
:10378000D9CFE5FFE1CFD9FF00C0E5FF01C0E5FFDC
:1037900002C0E5FF03C0E5FF020EDBCF00F0120E12
:1037A000005CD8B04CD0080E005C18E2280E002453
:1037B000016E026A280E0222036A000E032201C073
:1037C000F6FF02C0F7FF03C0F8FF0900F5CF01F0D4
:1037D00002015E51011A01505E6F31D00D0E005C86
:1037E00018E3280E0024016E026A280E0222036AE2
:1037F000000E032201C0F6FF02C0F7FF03C0F8FF6E
:103800000900F5CF01F002016051011A0150606F0B
:1038100016D0016A026A280E0026280E0122000E28
:10382000022200C0F6FF01C0F7FF02C0F8FF090046
:10383000F5CF00F002015F51001A00505F6FE4CF36
:1038400003F0E4CF02F0E4CF01F0E4CF00F0E4CFE6
:10385000D9FF1200D9CFE5FFE1CFD9FF00C0E5FFC6
:1038600001C0E5FF0201796B02015D6BFB0E0201F5
:103870005D5DD8B048D079C200F0016A360E0026EE
:10388000020E012200C0E9FF01C0EAFFEFCF00F005
:1038900000505D192FE179C200F0016A000E002688
:1038A000020E012200C0E9FF01C0EAFFEFCF00F0E5
:1038B0000050811A79C200F0016A120E0026020E31
:1038C000012200C0E9FF01C0EAFFEFCF00F0005085
:1038D000821A79C200F0016A240E0026020E01222B
:1038E00000C0E9FF01C0EAFFEFCF00F00050801AEE
:1038F0000201792B060E786F0000782F7CEF1CF008
:1039000002015D2BB3D7E4CF01F0E4CF00F0E4CFA8
:10391000D9FF1200D9CFE5FFE1CFD9FF00C0E5FF05
:1039200001C0E5FF02C0E5FF03C0E5FF04C0E5FFFD
:1039300005C0E5FF06C0E5FF07C0E5FF020EDBCFCF
:1039400000F0030EDBCF01F0040EDBCF02F0050E1A
:10395000DBCF03F0046A056A066A076A0350075C56
:1039600008E10250065C05E10150055C02E10050EF
:10397000045C0BE2010E37EC00F0042AD8B0052AF3
:10398000D8B0062AD8B0072AE9D7E4CF07F0E4CFA9
:1039900006F0E4CF05F0E4CF04F0E4CF03F0E4CF89
:1039A00002F0E4CF01F0E4CF00F0E4CFD9FF120041
:1039B000600EF66E3E0EF76E000EF86E0900F550C2
:1039C000056E0900F550066E055002E106503BE019
:1039D0000900F550006E0900F550016E0900F55020
:1039E000026E09000900F550E96E0900F550EA6E13
:1039F000090009000900F550036E0900F550046E36
:103A000009000900F6CF07F0F7CF08F0F8CF09F06A
:103A100000C0F6FF01C0F7FF02C0F8FF035002E14B
:103A2000045007E00900F550EE6E0306F8E20406C4
:103A3000F9D707C0F6FF08C0F7FF09C0F8FF050671
:103A4000C4E20606C5D71200D9CFE5FFE1CFD9FF02
:103A500000C0E5FF01C0E5FF02C0E5FF03C0E5FFD0
:103A6000020EDBCF00F0F30E00260050040DF3CF62
:103A7000C2FFC280090E006E016A0000FF0E002620
:103A8000D8A0010600500110F8E1C282C2B2FED7F0
:103A9000C4CF00F0016A0050036E026AC3CF00F089
:103AA000016A0050022601500322C29003C0F3FFB6
:103AB0000250E4CF03F0E4CF02F0E4CF01F0E4CF12
:103AC00000F0E4CFD9FF1200D9CFE5FFE1CFD9FF55
:103AD00000C0E5FF01C0E5FF02C0E5FF020EDBCF3D
:103AE00000F00050E56EC9EC1AF0E12A010A03E18A
:103AF000010E016E01D0016AE56AE56AE56A320EDF
:103B0000E56E8AEC1CF0040EE1260050E56EC9EC6F
:103B10001AF0E12A010A03E1010E026E01D0026AE5
:103B200002500118DEE10150E4CF02F0E4CF01F0D1
:103B3000E4CF00F0E4CFD9FF1200D9CFE5FFE1CF09
:103B4000D9FF00C0E5FF01C0E5FF02C0E5FF020E9E
:103B5000DBCF00F0030EDBCF01F0120E005C18E2A9
:103B6000010E015C02E2010E016EFB0E015C02E33C
:103B7000FA0E016E026A480E0026020E022200C0F2
:103B8000E9FF02C0EAFF01C0EFFF010E02015C6F16
:103B9000E4CF02F0E4CF01F0E4CF00F0E4CFD9FFAE
:103BA0001200D9CFE5FFE1CFD9FF00C0E5FF01C08A
:103BB000E5FF02C0E5FF03C0E5FF020EDBCF00F02A
:103BC000030EDBCF01F0026A036A0150035C02E1DD
:103BD0000050025C04E2022AD8B0032AF6D7E4CFF0
:103BE00003F0E4CF02F0E4CF01F0E4CF00F0E4CF43
:103BF000D9FF120000C0E5FF01C0E5FF02C0E5FFEC
:103C0000006A120E005C0DE2480E0024016E026A8A
:103C1000020E022201C0E9FF02C0EAFFEF68002A9B
:103C2000F0D7CF68CE6A010ECD6E9D80F28CF28EF9
:103C3000E4CF02F0E4CF01F0E4CF00F01200D9CFDE
:103C4000E5FFE1CFD9FF00C0E5FF01C0E5FF020EAF
:103C5000DBCF00F00050E56EC9EC1AF0016EE12AEE
:103C6000010E011AE56A0150E56EE56A0050E56E45
:103C700010EC17F0040EE126E4CF01F0E4CF00F0E1
:103C8000E4CFD9FF12009EA020D09E90CD6A020101
:103C90005B510BE029EC1FF0D30ECF6E8F0ECE6E72
:103CA000010ECD6E02015B6B10D02AEC1CF02D0EC4
:103CB000CF6E0F0ECE6E02015C51D8A437EC10F01F
:103CC000210ECD6E010E02015B6F1200D9CFE5FF10
:103CD000E1CFD9FF00C0E5FF01C0E5FF020EDBCF59
:103CE00000F0120E005C0EE2016A480E0026020E81
:103CF000012200C0E9FF01C0EAFFFA0EEF6E010EDB
:103D000002015C6FE4CF01F0E4CF00F0E4CFD9FF13
:103D10001200D9CFE5FFE1CFD9FF00C0E5FF01C018
:103D2000E5FF020EDBCF00F0120E005C02E3E86A52
:103D30000CD0016A480E0026020E012200C0E9FFE5
:103D400001C0EAFFEFCF00F00050E4CF01F0E4CF74
:103D500000F0E4CFD9FF1200D9CFE5FFE1CFD9FFC2
:103D600000C0E5FF01C0E5FF020EDBCF00F0120E40
:103D7000005C0DE2016A480E0026020E012200C01E
:103D8000E9FF01C0EAFF010EEF6E02015C6FE4CFB4
:103D900001F0E4CF00F0E4CFD9FF1200070EE56E8A
:103DA00050EC1BF0E12A060EE56E50EC1BF0E12A08
:103DB000050EE56E50EC1BF0E12A040EE56E50ECAA
:103DC0001BF0E12A030EE56E50EC1BF0E12A120015
:103DD000D9CFE5FFE1CFD9FF00C0E5FF020EDBCF71
:103DE00000F0005004E00050010A01E1C188E4CF76
:103DF00000F0E4CFD9FF12009D6AA06A0F0EC16ED9
:103E0000CEEC1EF021EC1FF0FAEC1DF0F28CF28EDD
:103E10001DEC14F0FDD7120011EEFFF021EEFFF0C3
:103E2000F86AA68EA69CD8EC1CF0FCEC1EF0FFD71E
:103E3000000000000000000D000E000F0010001137
:103E400000002F0E9212070E9612C16EBD0EC06EAC
:103E500012005EC281FF5FC282FF60C280FF12005B
:103E60000100303E00005A02000011000000120064
:063E700012001200120016
:10400000E8CFE5FFD8CFE5FFE0CFE5FFF3CFE5FF51
:10401000F4CFE5FFE9CFE5FFEACFE5FFFACFE5FF13
:10402000FBCFE5FFE4CFFBFFE4CFFAFFE4CFEAFFED
:10403000E4CFE9FFE4CFF4FFE4CFF3FFE4CFE0FF08
:0A404000E4CFD8FFE4CFE8FF100042
:00000001FF
